:100000000C94EA010C94AE1D0C94871D0C94601D99
:100010000C94391D0C9412020C9412020C94121DB3
:100020000C9412020C9412020C94D51D0C944C1ECC
:100030000C940A150C9412020C9412020C941202E5
:100040000C9412020C9412020C9412020C941202E0
:100050000C9412020C9412020C9412020C94ED20D7
:100060000C9412020C9412020C9412020C941202C0
:100070000C9412020C9412020C9412020C941202B0
:100080000C9412020C9412020C9412020C941202A0
:100090000C9468150C9412020C9412020C94120227
:1000A0000C9412020C9412020C941202EA0AEF0A47
:1000B0009B0B6F0B680BBF0B560C560C560C560C5B
:1000C000560C560C560C560C560C480C4F0CDE11A8
:1000D000E111D011D411DA11021202120212E5114B
:1000E000E911ED11F311F7110212FD1100040000E6
:1000F000000200000001000080000000400000003D
:1001000020000000100000000500000054582043AB
:100110006F6D706C657465002020200E11140C0F3B
:1001200012090C0F06090C030609000306140E0B36
:1001300008050200000000000000000000000000B0
:1001400001000100010000FF06050403020109008F
:10015000FFA027BE33E034C1332042C433A127BE01
:1001600033E134C1332142C4333F79C4DBC4BFF32C
:10017000C60501E61FE012F56AD7AF9B3A08B9FC45
:10018000DB1A58453D9AB810485374617274696E11
:100190006700070605040100080A0B0C0D095365EA
:1001A0006E64696E67004F505F5458525850454E08
:1001B000442C206E6F742073656E64696E67005006
:1001C000726F6365737320646174610000000000E6
:1001D000240027002A002D00300000000000250028
:1001E00028002B002E0031000000000200090F0043
:1001F00000030401000C00000000000000000000EB
:10020000000000000000000000000023002600297C
:10021000002C002F00637C777BF26B6FC530016789
:100220002BFED7AB76CA82C97DFA5947F0ADD4A26E
:10023000AF9CA472C0B7FD9326363FF7CC34A5E53A
:10024000F171D8311504C723C31896059A07128097
:10025000E2EB27B27509832C1A1B6E5AA0523BD6CB
:10026000B329E32F8453D100ED20FCB15B6ACBBEF0
:10027000394A4C58CFD0EFAAFB434D338545F9029C
:100280007F503C9FA851A3408F929D38F5BCB6DAB1
:100290002110FFF3D2CD0C13EC5F974417C4A77E57
:1002A0003D645D197360814FDC222A908846EEB868
:1002B00014DE5E0BDBE0323A0A4906245CC2D3ACA2
:1002C000629195E479E7C8376D8DD54EA96C56F4E7
:1002D000EA657AAE08BA78252E1CA6B4C6E8DD74A5
:1002E0001F4BBD8B8A703EB5664803F60E613557CD
:1002F000B986C11D9EE1F8981169D98E949B1E871D
:10030000E9CE5528DF8CA1890DBFE6426841992DC1
:100310000FB054BB160404040404030405020202D3
:10032000020403020202020606060606060404028E
:1003300002020404040802011040804010204080A2
:10034000408008020401804020100201108010202B
:10035000404020C04000000000006700CC00B80111
:1003600054039D07080B000202020100090400006B
:10037000010202000005240010010524010101040E
:100380002402060524060001070581031000400928
:10039000040100020A0000000705020240000007F5
:1003A0000583024000000403090412010002EF0269
:1003B00001409A230C80000101020301416461663F
:1003C00072756974004665617468657220333275B0
:1003D0003400B42811241FBECFEFDAE0DEBFCDBF5A
:1003E00025E0AEE8B2E001C01D92AE3BB207E1F7F6
:1003F00012E0A0E0B1E0EAE5FAE502C005900D9256
:10040000AE38B107D9F711E0CAEED1E004C02197A8
:10041000FE010E94F52BC93ED107C9F70E94372182
:100420000C942B2D0C9400000F931F93FC018081E2
:100430002181422F50E060E070E0BA015527442747
:10044000582BDF0111978C91482B82818A019B01E7
:10045000382BD901C801292F3A2F4B2F5527A4E655
:10046000B0E00E94112C8B019C01005C15452047D7
:100470003343013C1F4C2A46310518F060E070E020
:10048000CB011F910F91089581E08093A1020895FF
:100490004F925F926F927F928F929F92AF92BF9294
:1004A000CF92DF92EF92FF920F931F93CF93DF9340
:1004B0006B017C01EA0134E0239FF0011124E45137
:1004C000FF4F85909590A590B49085E080937C0334
:1004D00020911A0430911B042115310509F447C0FD
:1004E00040E050E0C701B6010E94242C722E032F79
:1004F000142FB52FF62FE72F582E692EA0E00E945B
:10050000F42C84F4215031094F4F5F4F6F4F7F4FD0
:100510008F4F9F4F722E032F142FB52FF62FE72FDB
:10052000582E692E272D302F412F5B2F6F2F7E2FB6
:10053000852D962D00E10E94D62C29013A01AAEFC3
:10054000B0E0A50194010E94112C64157505860583
:10055000970524F48FEF80937C0309C0C301B20197
:10056000A50194010E94D62B2B5F20937C038091E0
:100570006C0390916D03A0916E03B0916F03C80E50
:10058000D91EEA1EFB1ED501C40123E0880F991F66
:10059000AA1FBB1F2A95D1F7C80ED91EEA1EFB1E43
:1005A000A0917C03B0E0A50194010E94112CA70149
:1005B0009601261B370B480B590B20937003309381
:1005C00071034093720350937303CA01B9016D57CD
:1005D000710981099109AE01DF91CF911F910F91AE
:1005E000FF90EF90DF90CF90BF90AF909F908F9053
:1005F0007F906F905F904F900C949B0FCF92DF9203
:10060000EF92FF922091840430E0A4E2B4EF0E94C4
:10061000FB2B20917C03273071F5C0906C03D090A8
:100620006D03E0906E03F0906F03DC01CB018C0D45
:100630009D1DAE1DBF1D6C017D012AE0C21AD108AF
:10064000E108F108C0927003D0927103E092720346
:10065000F092730328E020937C03BC01CD0167581E
:1006600071098109910945E453E0FF90EF90DF9013
:10067000CF900C949B0F20917D0345E453E0FF90B5
:10068000EF90DF90CF900C944802ECE6F3E081E02D
:1006900080939304868597858068978786871092D4
:1006A000950483ED9CE0928F818F0E942F1880E04B
:1006B0000E94461B0C94B519ACE6B3E08AEE9CE0B0
:1006C0005A969C938E93599782E080939304E0917D
:1006D0008C04F0E0E85BFE4FE491F0E0EF77E06837
:1006E0001F96FC93EE931E9740918D0450918E04BB
:1006F00060918F047091900418964D935D936D9363
:100700007C931B97109295040E942F1880E00E9402
:10071000461B0C94B5198F929F92AF92BF92CF92C5
:10072000DF92EF92FF92CF93DF931F92CDB7DEB7A8
:100730004B015C0149830E949618F82E0E9496187E
:100740002F2D30E0322F2227B901682BCB014981B0
:100750006C01853274EF970720F024E2C21A24EF6F
:10076000D20AE12CF12C442369F0642F0E94942BCF
:10077000292F30E0A4E2B4EF0E94FB2BC60ED71E57
:10078000E81EF91EC80CD91CEA1CFB1C80910A0447
:10079000882399F080910B0490910C04A0910D0492
:1007A000B0910E04B701A601481B590B6A0B7B0BD5
:1007B00014161506160617068CF4C0920B04D09278
:1007C0000C04E0920D04F0920E04809113049091B9
:1007D0001404916090931404809313040F90DF919C
:1007E000CF91FF90EF90DF90CF90BF90AF909F9010
:1007F0008F900895FC014083518362837383089531
:100800002F923F924F925F926F927F928F929F9220
:10081000AF92BF92CF92DF92EF92FF920F931F930E
:10082000CF93DF93CDB7DEB72C970FB6F894DEBF2A
:100830000FBECDBF8091130490911404817C992741
:10084000892B09F0A9C40E9436182B013C01409164
:10085000130450911404CA018C739927892B09F44D
:1008600074C453FFBFC080900704909008049C821A
:100870008B82809117048F7021E030E0590102C013
:10088000AA0CBB1C8A95E2F7BE82AD82AFE0C30121
:10089000B2017E52864B94496F83788789879A8705
:1008A00022242394312CCF80D884E984FA84ECE686
:1008B000F3E080E090E0B0E08A2E912C9A82898269
:1008C00069817A81082E02C0759567950A94E2F7CE
:1008D00060FF12C0078D10A121A132A1460157016E
:1008E000801A910AA20AB30A181419041A041B04E4
:1008F0001CF4B82F6801790101963896843091056F
:10090000F9F6AB2EB12CBA82A98213E0AA0CBB1C5B
:100910001A95E1F7BC86AB86F501E459FC4F268DAC
:1009200090E18B2E912CA12CB12C81E0820F803193
:1009300010F081EF820F282F30E0B101082E02C0A5
:10094000660F771F0A94E2F7EB81FC816E237F2309
:10095000672B49F1F901EE0FFF1FE951FC4F608150
:100960007181ED81FE816E237F23672BE1F0220FE1
:10097000331F220F331FF901E459FC4F03AD14ADAF
:1009800025AD36AD03701127222733278016910637
:10099000A206B30641F4EB85FC85E459FC4F868F33
:1009A000809309040FC0915011F0282FBECFC101D0
:1009B000098002C0880F991F0A94E2F78095A82346
:1009C00009F071CFD701C601C0926C03D0926D03BC
:1009D000E0926E03F0926F03577F5093140440939C
:1009E000130408C080916C0390916D03A0916E0375
:1009F000B0916F0320910A04211106C020911304C5
:100A00003091140430FF12C000910B0410910C04BB
:100A100020910D0430910E046C017D01C01AD10AA1
:100A2000E20AF30AF7FE02C0D901C8018C019D0158
:100A300004191509260937090D571109210931092A
:100A400037FF76C3209017048091790490917A043F
:100A5000A0917B04B0917C0480389F4FAF4FBF4F73
:100A600000F10E942F180E94420E8BEF9CE09093A1
:100A70008603809385031092800310927F03E09198
:100A80006A03F0916B03AAE6B3E0309729F0DF0127
:100A90000190F081E02DF9CF8FE793E08D939C9347
:100AA0002DC3A0919204A1110DC040917D045091DD
:100AB0007E0460917F04709180044F3F5F4F6F4FC1
:100AC0007F4F79F2809113049091140488719927D3
:100AD00031E0409719F430E040E002C040911E043C
:100AE00080918A04882341F084E080939E041092D0
:100AF0008A0489E090E002C088E090E020919104AF
:100B0000222371F0BC0164597C4FFB01E65DFE4F6E
:100B100055E0508331962370208302961092910401
:100B200020918704222391F0BC0164597C4FFB0182
:100B3000E65DFE4F26E0208331962FEF208331962D
:100B400020918504208303961092870420918604C7
:100B5000222371F0BC0164597C4FFB01E65DFE4F1E
:100B600053E05083319627702083029610928604BA
:100B700020918304222339F02091820427FD1092D2
:100B800082041092830420918B04222371F0BC0113
:100B900064597C4FFB01E65DFE4F57E05083319670
:100BA00023702083029610928B04332319F025E0E2
:100BB000240F01C024E0582F322E380E60E4631554
:100BC00010F0732F04C064E0362E380E70E020E47D
:100BD000209396042091880460918104622B3091C7
:100BE00082043095232F221F2227221F2295220FB5
:100BF000220F207C5850562B252B20939B0460916C
:100C000075045091760430917704209178046093B4
:100C10009704509398043093990420939A04A11157
:100C200014C000917D0410917E0420917F043091C6
:100C300080040F5F1F4F2F4F3F4F00937D04109391
:100C40007E0420937F043093800420917D043091B2
:100C50007E042150310920939C0430939D0410920E
:100C60008104772309F442C020911D04222341F01E
:100C700020E820939604A11103C021E02093920460
:100C8000FC01EA56FB4F20911C042083DC01A9568D
:100C9000BB4F6D01A42EB12CA5016FE174E0CD0115
:100CA0000E94222D00917D0410917E0420917F04EA
:100CB00030918004409175045091760460917704DE
:100CC0007091780480911C04882319F085E694E0E3
:100CD00002C085E594E0A114B10441F0015011096E
:100CE00021093109E12CF12C0E94C41B032D10E0D5
:100CF0007801B4E0EB1AF10880907D0490907E04B6
:100D0000A0907F04B0908004E1E08E1A9108A108C1
:100D1000B108409175045091760460917704709108
:100D2000780430E1D32EE2E5F5E0DF012D2D1D92B0
:100D30002A95E9F789E48093520510925705E092CD
:100D4000610588E595E00E94FA03B501A4018CE5F0
:100D500095E00E94FA03E5E5F4E0A8E4B3E0019031
:100D60000D92DA94E1F7A70166E974E082E00E944F
:100D70009316F701EA56FB4F638372838183908356
:100D8000309295048EEF92E09093860380938503D2
:100D9000E22DF0E0E85BFE4F84918F79E09118043A
:100DA00030E2E39FF0011124E82BF0937B03E09302
:100DB0007A0320927D0380911304909114048F761E
:100DC000967F806898609093140480931304A09198
:100DD000090464E0A69FD0011124A459BC4FDB96FE
:100DE000CD90DD90ED90FC90DE973E2F377081F432
:100DF000D8011B9623E0AA0FBB1F2A95E1F724E236
:100E000034EF0E940A2C20E533EC40E050E088C02B
:100E1000832F880F880F885E353010F490E001C072
:100E200098E0682F691B93E0000F111F9A95E1F776
:100E3000081B1109045E1F4FE7FD03C080E190E02D
:100E400002C080E090E0080F191F8F2F9927892B8F
:100E500019F440E050E002C044E150E0041B150BDF
:100E600010161106D4F470E0060F171FC801019781
:100E70000E94A02BAF01A5E056954795AA95E1F7F2
:100E8000437050E04B5F5F4F649FC001659F900DC2
:100E9000749F900D1124089602C088E090E0880F9E
:100EA000991F880F991FC1963F5F63E0F695E795FC
:100EB0006A95E1F7E3703E1B353050F03450E9E0BD
:100EC000FDE302C0F595E7953A95E2F734E002C0FC
:100ED000E9E0FDE3092E000CAA0BBB0B4C015D0100
:100EE00004C0880C991CAA1CBB1C3A95D2F7A5011A
:100EF0009401A4E2B4EF0E94112C9F01F7FF02C0FD
:100F00002F5F3F4F359527958901330F220B330B08
:100F1000600F711F821F931F9F01FF0F440B550B22
:100F20000E94D62B49015A01D701C6018370992727
:100F3000AA27BB272CEFC222C0927403D09275035C
:100F4000E0927603F092770323E0880F991F2A95A9
:100F5000E1F7FC01E459FC4F858D80937E03A38D5E
:100F6000B48DA50194010E94112CDC01CB01840DEC
:100F7000951DA61DB71D878F90A3A1A3B2A3809135
:100F80000A04882399F004C0880C991CAA1CBB1C75
:100F90008A95D2F7480C591C6A1C7B1C40920B04A2
:100FA00050920C0460920D0470920E040E942F184F
:100FB00081E00E94B318877019F06BE072E061C0A5
:100FC00080917A03877009F051C060E181E00E944E
:100FD000C81881E00E94B318803119F06DEA71E001
:100FE00050C081E00E94A91962E082E00E94C81806
:100FF00060E883E00E94C81861E084E00E94C8189D
:1010000069E985E00E94C81860E085E20E94C8187E
:1010100065E086E20E94C81862E187E20E94C81873
:1010200060ED80E30E94C81860E481E30E94C81864
:1010300061EC88E20E94C81864E989E20E94C8183D
:1010400061EC8AE20E94C8180E94F8180E94E21817
:1010500064E380E40E94C818609195046F5F82E3A6
:101060000E94C8186091950480E03CC068E881E067
:101070000E94C81881E00E94B31887FD06C069ED80
:1010800071E087E491E00E94081881E00E94A919AC
:101090000E9448190E94F8188AE00E94B318807FC5
:1010A000682F68608AE00E94C8180E94E21864E312
:1010B00089E30E94C81860EF80E40E94C8186FEFAF
:1010C00082E10E94C81867EF81E10E94C81860E0C1
:1010D0008EE00E94C81860E08DE00E94C818609100
:1010E000950482E20E94C818809195040E947A0FAC
:1010F00081E00E94951883E00E94A9192C960FB6F2
:10110000F894DEBF0FBECDBFDF91CF911F910F913D
:10111000FF90EF90DF90CF90BF90AF909F908F9017
:101120007F906F905F904F903F902F900C94B519E7
:101130002091130421FF0EC00097A105B10551F4C1
:1011400081E090E0A0E0B0E005C041FF25C080E074
:1011500090E0DC01BC01CD016D5771098109910955
:1011600045EE58E02C960FB6F894DEBF0FBECDBF0B
:10117000DF91CF911F910F91FF90EF90DF90CF9073
:10118000BF90AF909F908F907F906F905F904F90A7
:101190003F902F900C949B0F2C960FB6F894DEBFC7
:1011A0000FBECDBFDF91CF911F910F91FF90EF90B8
:1011B000DF90CF90BF90AF909F908F907F906F9077
:1011C0005F904F903F902F9008950C9400042F92C1
:1011D0003F924F925F926F927F928F929F92AF92C7
:1011E000BF92CF92DF92EF92FF920F931F93CF9314
:1011F000DF9300D000D000D0CDB7DEB780911304CC
:1012000087FD06C061E677E08EEB91E00E9408184A
:101210008091950481118BC0E0919204EE2361F1DD
:10122000E83040F5EF5FE0939204F0E0E35CFE4FBE
:10123000949180911704915048F0E82FF0E0E95B19
:10124000FE4FE491EF3FB9F38150F5CF60E80E9483
:101250000B1C6091700370917103809172039091E7
:10126000730343E00E948B03809113049091140454
:101270008F7756C080E601C080E28093930480910E
:101280008204803819F08F5F809382041092950455
:101290001092940480911304909114049C01277778
:1012A000309314042093130420919304277051F079
:1012B00094FF08C087779F7E909314048093130453
:1012C0000E9400048CE091E00E94AA0D61E085E09C
:1012D0000E94031281E08093A20262E370E080E04A
:1012E00090E00E94B3200E94000480918204893122
:1012F0000CF42CC380911704E82FF0E0E95BFE4F5B
:10130000E491EF3F09F0815060E80E940B1C8CE0F3
:101310008093820480911304909114048062906100
:1013200090931404809313040E9400040FC320912F
:10133000960490E08C30910544F4109295048091CD
:10134000930480FF69CF80E015C3022F0370A9F7D3
:10135000207EB22E20E6B21619F030EAB312EDCF9D
:1013600040919B044B83209198044091990450E054
:1013700060E070E0BA0155274427522B2091970472
:10138000422B20919A04722B30919C0420919D0451
:10139000C0907504D0907604E0907704F0907804C3
:1013A0004C155D056E057F0541F6EB81EF70EE2E65
:1013B000F12C4701A8E08A0E911C1C01B4E02B1A05
:1013C0003108281439040CF4B8CF8214930464F45F
:1013D000F401EA56FB4F8081E82FF0E0FA83E983BD
:1013E000C70109964C0104C0AFEFBFEFBA83A983D0
:1013F0004090790450907A0460907B0470907C0453
:10140000832F90E0922B84199509480E591E611C78
:10141000711C10E1E2E5F5E0DF01212F1D922A9514
:10142000E9F789E48093520581E080935705209283
:10143000610588E595E00E94FA03B301A2018CE5FD
:1014400095E00E94FA03E5E5F4E0A8E4B3E001903A
:101450000D921A95E1F7A10166E974E082E00E941D
:101460009316AB01BC01F101EA56FB4F2281818149
:1014700090E0A0E0B0E0DC0199278827922B23813F
:10148000822B2081B22B481759076A077B0709F086
:1014900054CF8091790490917A04A0917B04B0910B
:1014A0007C04481659066A067B06D8F4841595050F
:1014B000A605B7050CF441CF0197A109B10948165B
:1014C00059066A067B0609F038CF8091810488238B
:1014D00009F433CF30EAB31230CFCC24C394D12CEB
:1014E00017C0D301C2010196A11DB11D80937904DB
:1014F00090937A04A0937B04B0937C0440EAB416E2
:1015000011F080E001C080E280938104C12CD12CD5
:1015100080918104811103C05B8154FF09C08091D7
:101520001304909114048061909314048093130425
:10153000109219041092830480918204803819F06B
:1015400084EF8093820420917A0330917B03822F71
:10155000877090E0FC01EE0FFF1FE80FF91FE85EB7
:10156000FE4F83E0369527958A95E1F72370E20FC9
:10157000F11DE49180917803082E000C990B8E1BCD
:101580009109835B9F4F97FD06C08F3F910514F033
:101590008EEF90E0082F009385041E821D82AA24FE
:1015A000AA94BA2C01E04D815E814E155F050CF0C6
:1015B0007DC1ED81FE81E256FB4FE0818E2F90E0F0
:1015C000FC013297E131F10508F070C1EA5AFF4F92
:1015D0000C94F52B2D813E812D5F3F4F64C1ED8131
:1015E000FE81E156FB4F1081ED81FE81E056FB4FFD
:1015F00080812181ED81FE81EE55FB4F30813C835E
:101600004D815E814B5F5F4F5E834D8357E8509302
:101610008604932F907F09F09BC190E0922B009756
:1016200009F496C120910704309108042095309563
:10163000282339232115310509F08AC1A7EAB3E02F
:10164000E1E0F0E0022E02C0EE0FFF1F0A94E2F785
:10165000BF0168237923672B71F04D915D916D91E6
:101660007C911397452B462B472B29F4AF014095CE
:101670005095842395232F5F3F4F149620313105D9
:10168000F9F69093080480930704812F82958F7058
:10169000E82FF0E0E85BFE4FE491EF3F29F49091F2
:1016A00086049D7F90938604909186049F7797305F
:1016B00061F49C819F70909315041F70E12FF0E0FE
:1016C000E35DFE4F64910E940B1C009383046BCF7B
:1016D000009387042D813E812F5F3F4FE4C0ED8151
:1016E000FE81E156FB4F10811F708D819E818056D7
:1016F0009B4F0E941402E12FF0E0E85BFE4FE49163
:10170000EF3F51F032E83093910461157105810586
:10171000910509F021C10AC0A0E8A0939104672BAC
:10172000682B692B19F041E8409391042D813E818B
:101730002B5F3F4FB8C0ED81FE81E156FB4F20810A
:101740002F3F49F480911304909114048064909386
:101750001404809313042F7020930A040E943618F7
:1017600060930B0470930C0480930D0490930E040B
:1017700000938A044D815E814E5F5F4F8DC0ED8185
:10178000FE81E156FB4F10818D819E8180569B4FDB
:101790000E941402AB01BC01ED81FE81ED55FB4FAF
:1017A000E08180E880938B04411551056105710546
:1017B00009F469C08E2F82958F70AFE0B0E0A81B4E
:1017C000B109950102C036952795AA95E2F7EF7009
:1017D000C50102C0880F991FEA95E2F72823392333
:1017E000103108F050C0DB01CA01805C9D4FA14D53
:1017F000B3438139904DA340B10510F4426016C047
:10180000DB01CA01915AAC4BB343813C9742A940DA
:10181000B10558F0DB01CA01805A9149A64DB34386
:10182000813E9349A440B10508F44160812F90E0C6
:10183000FC01EE0FFF1FEE0FFF1FE459FC4F43AFFB
:1018400054AF65AF76AF2115310511F42FE330E0C9
:10185000880F991FFC01E951FC4F3183208321E05F
:1018600030E002C0220F331F1A95E2F7809107047F
:1018700090910804822B932B909308048093070483
:10188000F3E8F0938B042D813E812A5F3F4F0BC01C
:101890004D815E814C5F5F4F5E834D8384CE2D8191
:1018A0003E812C5F3F4F3E832D837DCECD2831F589
:1018B00089819A818F3FAFEF9A0701F15101A818F2
:1018C000B9081A141B04D4F4F401EA56FB4F6F0153
:1018D000409175045091760460917704709178047A
:1018E000892B19F085E694E002C085E594E0EE24AA
:1018F000E394F12C930182010E94C41B8091920415
:10190000882359F080919304FB81F5FD02C090E497
:1019100001C090E8892B80939304809193042981DE
:101920003A812F3F3F4F41F480628093930480922D
:10193000940410929504AECC8061809393048092BD
:101940009404822D881980939504A4CC81E012C060
:1019500056E85093860499CEB3E8B093910410935F
:101960008C0460938D0470938E0480938F04909305
:101970009004DCCE26960FB6F894DEBF0FBECDBF26
:10198000DF91CF911F910F91FF90EF90DF90CF905B
:10199000BF90AF909F908F907F906F905F904F908F
:1019A0003F902F9008958091950481110EC0A091D1
:1019B0008404B0E0119624E234EF0E940A2C2091B6
:1019C0008C044CE553E00C9448020E94E7088823FD
:1019D00071F308958091950481110BC010929304C6
:1019E0000E943618645973428D4F9F4F42E00E9407
:1019F0008B030C94E7080E941F1C0C940004909128
:101A000025039111FCCF813208F080E291E09093A0
:101A10002503909324032FEF209323031092220396
:101A2000280F2093210390932003909120039E6E12
:101A30009093200390911F03913041F410921F0363
:101A4000909120039093BB0095EC01C095EE90938C
:101A5000BC00909125039130E1F3909122039817F7
:101A600010F480912203AFEFB2E028E233E0F901F5
:101A70009E2F921B981718F49D919193F9CF109275
:101A800027038093260308958F929F92AF92BF926F
:101A9000CF92DF92EF92FF92CF93DF93A0913B051D
:101AA000882311F03A2F01C030E080913C0590E08E
:101AB000880F991F895F9D4FC0904105D0904205C6
:101AC000E0904305F090440540E050E0BA01FC018D
:101AD000C591D49128812A2323130FC04A015B01A9
:101AE0002FEF821A920AA20AB20A4C155D056E0502
:101AF0007F0538F4B501A401EACF342F252FCB019F
:101B000004C030E020E080E090E0632F722FDF918E
:101B1000CF91FF90EF90DF90CF90BF90AF909F90CC
:101B20008F900895BC01009791F0FC010190002076
:101B3000E9F73197AF01481B590BE091D604F091BA
:101B4000D7040280F381E02D86ED94E0099480E0D3
:101B500090E008950F931F93CF93DF938C01C0E023
:101B6000D0E0F801EC0FFD1F6491662371F0E09165
:101B7000D604F091D7040190F081E02D86ED94E039
:101B80000995892B11F02196ECCF85E792E00E9410
:101B9000920D8C0F9D1FDF91CF911F910F91089592
:101BA00083E08093E9008091F200882319F08AE3B2
:101BB0008093E80008958F929F92AF92BF920F9307
:101BC0001F93CF93DF93CDB7DEB7A1970FB6F894ED
:101BD000DEBF0FBECDBF19A2423008F44AE08E012D
:101BE0000F5D1F4F842E912CA12CB12CA5019401C7
:101BF0000E94B42BE62FB901CA0101501109EA3045
:101C000014F4E05D01C0E95CD801EC93232B242B94
:101C1000252B61F7C8010E94920DA1960FB6F8948A
:101C2000DEBF0FBECDBFDF91CF911F910F91BF904F
:101C3000AF909F908F900895E091D604F091D704D3
:101C40000190F081E02D682F86ED94E00994CF9308
:101C5000C82F80E00E94891880E00E94821826E93F
:101C600034E0F9018E2F821B8C1740F41EBC00005B
:101C70000DB407FEFDCF8EB58193F4CF81E0CF91F7
:101C80000C9489180E942F18E0916803F091690361
:101C9000A8E6B3E0309781F023E0EF37F20739F49C
:101CA00080917F03909180038D939C9318C0DF01F6
:101CB0000190F081E02DEECFEAE6F3E080819181A2
:101CC000009769F023E08F37920739F480917F0302
:101CD000909180039183808302C0FC01EFCF0C942C
:101CE000B5194F925F927F928F929F92AF92BF925F
:101CF000CF92DF92EF92FF920F931F93CF93DF93D8
:101D0000CDB7DEB768970FB6F894DEBF0FBECDBF74
:101D10006C0108E513E09801AC0194E0992E900E57
:101D2000FA0180E090E06191D901A80FB91F6C938E
:101D3000049680319105B9F74C5F5F4F2F5F3F4F9D
:101D40009212EECFDE011196E8E4F3E07D0180E12E
:101D50008E0F91919D938E13FCCFC7010E94F117B6
:101D6000882483948BE1782E88E593E0DC0130E0D1
:101D70002C91E22FE295EF7040E1E49FF0011124F5
:101D8000EB5EFD4F2F70E20FF11DE491EC933F5F8E
:101D90001496343069F701969812E8CF0E94D6174E
:101DA000A4E6B3E048E553E0BE016B5E7F4FCE0191
:101DB00041962C0120E030E05A01A20EB31EF5013D
:101DC0009081FB019193BF01892F880F97FD872593
:101DD000F20180832C5F3F4FFFEF4F1A5F0A2031E3
:101DE000310551F77E89998997272F89B88C8A897F
:101DF00082278B25382F3927FA013193AF016D895E
:101E00003B89FD013897862783278083AC883496E9
:101E10008B2D8727862783278A2580832627A2263E
:101E20009A259D939412C0CFB701882D0E948517E3
:101E3000C7010E94F11783949AE0891295CF88E533
:101E400093E0DC0130E02C91E22FE295EF7040E16D
:101E5000E49FF0011124EB5EFD4F2F70E20FF11DA6
:101E6000E491EC933F5F1496343069F70196981231
:101E7000E8CF0E94D617B7018AE00E948517C701F4
:101E80000E94F117F60180E090E0D801A80FB91F79
:101E90002C912193049680319105B9F784E0C80E06
:101EA000D11C0F5F1F4F9012EDCF68960FB6F894BC
:101EB000DEBF0FBECDBFDF91CF911F910F91FF907D
:101EC000EF90DF90CF90BF90AF909F908F907F90DA
:101ED0005F904F900895FC0120E1215050F011F0E7
:101EE000818101C080E09081990F87FD916091937D
:101EF000F4CF0895EF92FF921F93CF93DF93182FA3
:101F000080E00E94891880E80E94821886E9E82E05
:101F100084E0F82EE7018C2F8E19811720F4899127
:101F20000E948218F8CF81E0DF91CF911F91FF903E
:101F3000EF900C948918CF92DF92EF92FF92CF939B
:101F4000DF9300D000D0CDB7DEB77A0169837A8302
:101F50008B839C830E942F180E94420E69817A8194
:101F60008B819C81609381037093820380938303B0
:101F700090938403F0928603E0928503109280038D
:101F800010927F03E0916803F0916903A8E6B3E043
:101F90003097B9F0C280D380E480F580C61AD70AA2
:101FA000E80AF90A1C141D041E041F042CF4F09303
:101FB0008003E0937F0305C0DF010190F081E02DF5
:101FC000E7CF8FE793E08D939C930F900F900F9046
:101FD0000F90DF91CF91FF90EF90DF90CF900C9416
:101FE000B5194F925F926F927F928F929F92AF92AC
:101FF000BF92CF92DF92EF92FF926B017C01B42EE1
:102000009B01AC010E947F2B882319F088E792E0A6
:1020100027C026013701E89477F82FEF3FEF4FE70D
:102020005FE7C301B2010E947F2B81110DC02FEF2A
:102030003FEF4FE75FE7C301B2010E94AE291816D8
:102040001CF48CE792E00CC02FEF3FEF4FE75FE40A
:10205000C701B6010E940D2B181684F480E892E0A7
:10206000FF90EF90DF90CF90BF90AF909F908F90B8
:102070007F906F905F904F900C94920D2FEF3FEFF9
:102080004FE75FECC701B6010E94AE2987FDE6CF9E
:1020900020E030E0A901C701B6010E94AE2987FF08
:1020A00009C08DE20E941C0E4C01F7FAF094F7F87B
:1020B000F09402C0812C912CA12C60E070E080E0B3
:1020C0009FE3AB1441F020E030E040E251E40E9495
:1020D000B329A394F6CF9B01AC01C701B6010E94BE
:1020E00042292B013C010E942C2A6B017C010E9499
:1020F0005B2A9B01AC01C301B2010E9441292B0163
:102100003C014AE0C701B6010E94DB0D7C01E80CEE
:10211000F91CBB2029F08EE20E941C0EE80EF91E6D
:10212000DB2CDD2021F120E030E040E251E4C3016E
:10213000B2010E94122B2B013C010E942C2A4B0160
:10214000A12CB12C4AE0C501B4010E94DB0DE80EC0
:10215000F91EC501B4010E945B2A9B01AC01C301B9
:10216000B2010E9441292B013C01DA94DACFC70168
:10217000FF90EF90DF90CF90BF90AF909F908F90A7
:102180007F906F905F904F9008952091FE02909104
:10219000FD02213208F046C0809125038111FCCF59
:1021A00032E03093250331E0309324033FEF309346
:1021B00023031092220320932103ADEDB2E04FEFF1
:1021C00052E0FA013E2F341B321718F43D9131933F
:1021D000F9CF1092200320912003990F922B909316
:1021E000200390911F03913041F410921F039091AE
:1021F00020039093BB0095EC01C095EE9093BC003A
:10220000909125039230E1F3909123039F3F79F061
:1022100080912303803241F080912303803331F099
:1022200084E005C081E003C082E001C083E0109239
:10223000DC021092FE021092DB02089591E090936E
:10224000DB0297E79093FD021092DC021092FE02EF
:10225000682F86E295E00E9408140E94C51081E074
:1022600090E00E94FF0C909126038091270398171D
:10227000F1F386E295E00E94AF130895682F86E29D
:1022800095E00C9408141F93CF93DF9391E0909303
:10229000DB0297E79093FD021092DC021092FE029F
:1022A000682F86E295E00E9408140E94C51082E023
:1022B00090E00E94FF0C2091260330E080912703DC
:1022C000281B310922303105ECF386E295E00E94AB
:1022D000AF13182F86E295E00E94AF13D12F20E0B4
:1022E000C22F9E01282BC901DF91CF911F91089524
:1022F000FC018091BC02811103C08FEF9FEF089514
:102300009FB7F89482E08093E9002091F20030E0DA
:102310001216130614F421E030E02115310551F0B6
:1023200084E68093BB028091F10080838091F2006B
:10233000882319F09FBFC90108958BE68093E800B8
:10234000F9CF2FB7F89483E08093E9009091E800EB
:10235000892F807295FF04C09091F20080E4891B60
:102360002FBF089580914A0581110DC082E08093AE
:10237000460584E080934705109249051092480570
:1023800081E080934A0586E495E0089590E0FC01A1
:102390003197EF30F105B0F5E959FF4F0C94F52B6B
:1023A000809180008F7703C0809180008F7D809323
:1023B0008000089580918000877FF9CF84B58F7762
:1023C00002C084B58F7D84BD0895809190008F7781
:1023D00007C0809190008F7D03C080919000877F1F
:1023E0008093900008958091C0008F7703C0809102
:1023F000C0008F7D8093C00008958091C200877FC8
:102400008093C20008951F93CF93DF93282F30E06D
:10241000F901E851FE4F8491F901EC5CFC4FD49135
:10242000F901EB5EFC4FC491CC23C9F0162F81114A
:102430000E94C611EC2FF0E0EE0FFF1FE652FE4F98
:10244000A591B4918FB7F894111105C09C91ED2F0F
:10245000E095E92302C0EC91ED2BEC938FBFDF9167
:10246000CF911F910895CF93DF9390E0FC01EC5C36
:10247000FC4F2491FC01EB5EFC4F8491882361F1B9
:1024800090E0880F991FFC01E453FE4FC591D49151
:10249000FC01E652FE4FA591B491611109C09FB7AE
:1024A000F8948881209582238883EC912E230BC099
:1024B000623061F49FB7F8943881822F809583232E
:1024C0008883EC912E2B2C939FBF06C08FB7F89476
:1024D000E8812E2B28838FBFDF91CF910895CF9273
:1024E000DF92EF92FF920F931F93CF93DF93CDB7BD
:1024F000DEB7C054D1400FB6F894DEBF0FBECDBFDB
:102500002FB7F8948091BD029091BE02A091BF02B6
:10251000B091C0022FBF40913D0550913E056091A2
:102520003F05709140058C019D01041B150B260B86
:10253000370BB901A801403D57406105710518F4FA
:1025400080914505BCC080933D0590933E05A093C6
:102550003F05B09340051092380510923705109250
:102560003605109235051092340561E080913905E9
:102570000E9403126AEF70E080E090E00E94B320B6
:1025800061E0809139050E94331260E08091390545
:102590000E94031264E170E080E090E00E94B320AA
:1025A000F89461E0809139050E9403128CE490E078
:1025B0000197F1F762E0809139050E94331280E1C2
:1025C00090E00197F1F780E00E94440D672B682BA3
:1025D000692B21F41092450578943EC081E00E9459
:1025E000440D672B682B692BA9F38E010F5F1F4FDA
:1025F0006E012FEBC21A2EEFD20A780180E00E9402
:10260000440DF701608371838283938381E00E948C
:10261000440DF7016483758386839783F8E0EF0E9A
:10262000F11CEC14FD0451F7789420E030E0F8013F
:102630004081518162817381C480D580E680F780BA
:10264000411551056105710529F0C114D104E1045A
:10265000F10421F41092450580E031C0F90183E0D6
:10266000F595E7958A95E1F7EC5CFA4F8081880F44
:102670004C155D056E057F0508F4816080832F5F32
:102680003F4F085F1F4F2832310589F620913805EA
:1026900030E0409134058091350590E0840F911D24
:1026A00040913605840F911D40913705840F911D8F
:1026B00099272817390771F681E080934505C05C9A
:1026C000DE4F0FB6F894DEBF0FBECDBFDF91CF91C6
:1026D0001F910F91FF90EF90DF90CF900895CF93CF
:1026E000DF931F92CDB7DEB76983DC01ED91FC91DA
:1026F0000280F381E02D41E050E0BE016F5F7F4F2B
:1027000009950F90DF91CF910895FC0184859585FF
:1027100097FD0BC09FB7F89482E08093E900809109
:10272000F2009FBF90E0019608959FB7F89482E071
:102730008093E9008091F2009FBF90E00895089592
:10274000E091270380912603E81730F4F0E0E85D7C
:10275000FC4F808190E008958FEF9FEF0895909156
:10276000270380912603981750F4E92FF0E0E85DE5
:10277000FC4F208130E09F5F9093270302C02FEF32
:102780003FEFC90108958091260390E0209127032F
:10279000821B91090895CF92DF92EF92FF920F93DF
:1027A0001F93CF93DF937C018A018091DB02882302
:1027B00089F0EB016B01C40ED51ECC15DD05F1F0DF
:1027C0006991D701ED91FC910190F081E02DC70155
:1027D0000995F3CF842F413288F4909125039430EA
:1027E00069F44093A805FB0128E835E0D9019A2F48
:1027F000921B981718F491919D93F9CFC801DF911E
:10280000CF911F910F91FF90EF90DF90CF9008959F
:102810002091DB022223C9F02091FE02203240F0F9
:1028200021E030E0FC013383228380E090E00895D2
:102830008091DC02E82FF0E0E352FD4F60838F5F70
:102840008093DC028093FE0209C0809125038430CE
:1028500029F481E08093A8056093880581E090E0E9
:102860000895089580E090E0089585ED8093BC0080
:102870008091BC0084FDFCCF1092250308958F92B7
:102880009F92AF92BF92CF92DF92EF92FF920F93FF
:102890001F93CF93DF935C016B017A018091150147
:1028A000882309F459C08091BC02882309F454C0DC
:1028B00080918F0280FF05C08091E000826080934C
:1028C000E000E70110E00AEF83E0882E9AE3992EFA
:1028D0002097D1F10E94A111811109C00150E1F1AD
:1028E00061E070E080E090E00E94B320F1CF282FFB
:1028F00030E0C217D3070CF48C2F4FB7F8948092B6
:10290000E9009091E80095FF1DC0282F30E0C21B20
:10291000D30BF601982F915020F081918093F10014
:10292000FACFC20ED31E112319F09092E80009C00D
:102930008091E80085FD06C09092E80011E02097A4
:1029400009F010E04FBFC4CF1111C4CF84E68093CB
:10295000AE051E141F0444F081E090E0F50193835E
:10296000828380E090E001C0C701DF91CF911F9189
:102970000F91FF90EF90DF90CF90BF90AF909F901E
:102980008F9008950E94A11190E008950C94D00DAD
:102990000F931F93CF93DF931F92CDB7DEB78C01B8
:1029A000FC018485958597FF0EC0CE0101960E949B
:1029B0007811019719F4298130E002C02FEF3FEF21
:1029C000F80135872487F801848595850F90DF917C
:1029D000CF911F910F910895CF93DF931F92CDB7A1
:1029E000DEB7FC018485958597FD05C02FEF3FEF8D
:1029F000358724870BC0CE0101960E94781101977C
:102A000019F4898190E002C08FEF9FEF0F90DF9162
:102A1000CF9108951F920F920FB60F9211248F93AA
:102A20000FB6F894A895809160008861809360004B
:102A3000109260000FBE8F910F900FBE0F901F90ED
:102A400018954115510529F4EAE7F0E080818F7768
:102A500080836A307105A9F063FD02C088E001C07F
:102A600088E26770682B88E10FB6F894A895809388
:102A700060000FBE60936000E0E6F0E0808180645B
:102A80008083232B79F483B7817F846083BFF8949C
:102A900083B7816083BF7894889583B78E7F83BF27
:102AA00078940EC083B7817F846083BFF89483B726
:102AB000816083BF7894889583B78E7F83BF789435
:102AC000452B29F4EAE7F0E080818068808308954F
:102AD0001F920F920FB60F9211242F933F934F9393
:102AE0005F936F937F938F939F93AF93BF93EF9376
:102AF000FF938091B900887F803609F49CC068F507
:102B0000883209F45BC090F4803109F454C038F481
:102B1000882309F4F3C0883009F44DC0F3C088312C
:102B200009F44CC0803209F45DC0ECC0803409F473
:102B300068C048F4803309F455C0883309F0E2C016
:102B400080932303D5C0803509F44FC0883509F43C
:102B50005DC0883409F0D6C0D3C0883909F4C4C038
:102B6000A8F4883709F467C038F4883609F463C0DC
:102B7000803709F460C0C6C0883809F4B5C0803910
:102B800009F45FC0803809F0BDC05BC0803B09F428
:102B900083C038F4803A09F466C0883A09F47CC0EE
:102BA000B1C0803C09F4A4C0883C09F4A1C0883BB2
:102BB00009F487C0A7C08091200310C09091220320
:102BC00080912103981770F5E091220381E08E0F28
:102BD00080932203F0E0E150FD4F80818093BB00A1
:102BE00085EC83C0809323038BC0E091220381E0B6
:102BF0008E0F809322038091BB00F0E0E150FD4FE7
:102C0000808390912203809121036BC0E091220385
:102C100081E08E0F809322038091BB00F0E0E150B1
:102C2000FD4F80838091240381116AC081E08093ED
:102C30001F0384EA5EC083E080932503109287051A
:102C4000CFCF80918705803208F04EC0E091870594
:102C500081E08E0F809387058091BB00F0E0E959F9
:102C6000FA4F8083BDCF80918705803230F4E091A8
:102C70008705F0E0E959FA4F10820E9435146091FF
:102C8000870570E0E0916505F091660587E695E0BF
:102C90000995109287052CC084E08093250310923B
:102CA00064051092A805E0916205F091630509950D
:102CB0008091A805811105C081E08093A80510923C
:102CC0008805E091640581E08E0F80936405F0E053
:102CD000E857FA4F80818093BB0090916405809102
:102CE000A805981708F47CCF85E88093BC000AC03B
:102CF00085EC8093BC001092250304C0109223033E
:102D00000E943514FF91EF91BF91AF919F918F91E8
:102D10007F916F915F914F913F912F910F900FBED7
:102D20000F901F9018959F92AF92BF92CF92DF9213
:102D3000EF92FF920F931F93CF93DF93CDB7DEB740
:102D400061970FB6F894DEBF0FBECDBF7B018A013D
:102D5000282F30E0277F2230310589F024303105DB
:102D600029F0232B09F0BCC020E08BC070E1B72E06
:102D7000CE0101966C01E0E1AE2EA80EA0C083FD4D
:102D800011C082E595E00E94710E40E1942EDE01B3
:102D900011966D0182E595E050E1B52EB80E67E819
:102DA000A62E42C080E1E2E5F5E0DF011D928A95A2
:102DB000E9F7EBCFFC012191CF013C9123272D9323
:102DC0004F5F7F01015011094031B1F1011511052B
:102DD00089F7E42FF0E0EE5AFA4F80818058808323
:102DE00001E0D601E92D1D92EA95E9F7C6010E949E
:102DF000710E19811078C6010E946B0F112319F012
:102E000088898A25888B01111CC0D601E2E5F5E08E
:102E10008D91908189278193BE12FACF00E010E056
:102E200082E595E00E94710E01151105A9F0C70118
:102E3000A2E5B5E040E0BECF0115110589F700E03D
:102E4000D0CF19811078C6010E946B0F1123E9F2CF
:102E500088898A25888BD9CF2091540560915305A4
:102E6000862F90E0A0E0B0E0DC0199278827922B24
:102E700020915505822B20915205BC01CD01922B4A
:102E800032C0822F90E08017910750F58E0D9F1D64
:102E9000298B0E94710E2989205FF3CF011511053E
:102EA00049F08D91908189278193015011097F010B
:102EB000AA12F4CF809161058F5F8093610501159F
:102EC000110571F0E2E5F5E0D6018B2D01900D9230
:102ED0008A95E1F7C6010E94710EF701D601E1CF94
:102EE00060E070E0CB0161960FB6F894DEBF0FBED4
:102EF000CDBFDF91CF911F910F91FF90EF90DF90A9
:102F0000CF90BF90AF909F900895CF93DF9300D064
:102F100000D0CDB7DEB7DB011C969E012F5F3F4F7F
:102F2000F90144E0420F9D9191934E13FCCF99819A
:102F30005A8159835B815A835C815B839C83D9016D
:102F40009C91E92FE295EF7050E1E59FF00111248B
:102F5000EB5EFD4F9F70E90FF11DE491ED934A1375
:102F6000EFCF91E05BE1813041F0E92FE078990FFC
:102F7000E03809F495278150F6CF89819827998305
:102F800094E0F901DB0150818C9185278D93819329
:102F90004E13F9CF91506C5F7F4F9111F2CF0F908C
:102FA0000F900F900F90DF91CF910895E8E5F3E037
:102FB0008481958194839681958397819683878375
:102FC0008085928590878287818593859187838785
:102FD0008785968597879585968794859587848735
:102FE0000895AC0128E533E064E0620FDA01F901ED
:102FF00090E08D917081872780839F5F3496943015
:10300000C1F72F5F3F4F4C5F5F4F6213EFCF0895C3
:10301000EC018B0184E892E00E94920D85E792E03A
:103020000E94920DCE010E94920D8AE30E941C0E16
:10303000B80180E090E04AE00E94DB0D85E792E075
:103040000E94920D0E94D00D0E942F18FFCF682F72
:1030500086ED94E00E946F1380E090E00895F8946C
:103060008091AD058F5F8093AD0508950E948E20FD
:10307000DC01CB0124E0B695A795979587952A9515
:10308000D1F73091A905232F2B272870230F2093E8
:10309000A905BC01CD01922B0895CF92DF92EF924A
:1030A000FF926B017C010E943618C61AD70AE80A03
:1030B000F90A89EEC81683E0D806E104F1046CF041
:1030C00060E170E080E090E00E94B32088EEC81AD2
:1030D00083E0D80AE108F108ECCF1C141D041E049B
:1030E0001F045CF484E0CC0CDD1C8A95E1F7C6017A
:1030F000880F991F04970197F1F7FF90EF90DF90E9
:10310000CF9008958EBD00000DB407FEFDCF8EB5A3
:103110000895811106C020913205909133052CBD90
:103120009DBD682F88E00C94031208959091910240
:10313000911106C06FED72E087E491E00E940818DB
:10314000903141F440E150E061E972E080E00E949A
:10315000931690E0E92FF0E0EF56FD4F80819F5FDE
:10316000909391020895CF93C82F80E00E94891810
:103170008C2F8F770E9482181EBC00000DB407FEB2
:10318000FDCFCEB581E00E9489188C2FCF91089594
:103190001F93CF93DF931F92CDB7DEB7182F80E038
:1031A00069830E948918812F80680E948218698132
:1031B000862F0E94821881E00F90DF91CF911F919E
:1031C0000C94891860917E03613124F462301CF400
:1031D00062E001C06FE06F70606889E00E94C8180B
:1031E0008AE50E94B318682F64608AE50C94C818B9
:1031F000AF92BF92CF92DF92EF92FF920F931F9305
:10320000CF93DF938091740390917503A09176031F
:10321000B09177039C01AD0160E070E080E090E048
:1032200003E10E94BD2CA12CE8E4BE2EF8EECF2EC7
:10323000DD24D394E12CF12C00E010E00E94602CFE
:10324000C22FB32E6A017B01182FD92F00E10E94F3
:10325000D82C622F86E00E94C8182C2F3B2DA60187
:10326000B701812F9D2F08E00E94D82C622F87E0A4
:103270000E94C8186C2F88E0DF91CF911F910F91A9
:10328000FF90EF90DF90CF90BF90AF900C94C81854
:10329000CF93DF9360917A0370917B03D62FD77021
:1032A000CB0153E0969587955A95E1F7837081306D
:1032B00049F050F0823051F068E471E087E491E029
:1032C0000E940818C0E803C0C0E701C0C0E9CB01F4
:1032D00045E0969587954A95E1F78370823041F0F5
:1032E000833041F0813011F0C26005C0C46003C07A
:1032F000C66001C0C860672F77276115710521F08E
:10330000C16082E20E94C8186C2F8DE10E94C8182B
:103310006D2F6295607F605A80917A0387FF6460A9
:103320008EE10E94C818D550D23068F480917A039B
:1033300090917B0323E0969587952A95E1F783701A
:1033400011F46CE001C064E086E2DF91CF910C944F
:10335000C818CF93C82F81E00E94B318887F682FC8
:103360006C2B81E0CF910C94C8184F925F926F92B2
:103370007F929F92AF92BF92CF92DF92EF92FF9295
:103380000F931F93CF93DF938091AD05815080936E
:10339000AD0581110CC1789409E111E0CAEAD5E0CC
:1033A000AA24A3944FE7E42E43E0F42EBC2E83E03E
:1033B000B80EF80121918F012F3F09F4F5C07880F4
:1033C000C72CD12C30E0F901E851FE4F8491F9016E
:1033D000EC5CFC4F6490F901EB5EFC4F94909920FB
:1033E000A1F081110E94C611E92DF0E0EE0FFF1F40
:1033F000E95FFD4FA591B491EC916E2231E020E0A0
:1034000009F430E0832F922F02C080E090E0C816CC
:10341000D90609F4C9C07A247882772009F4C4C097
:103420000E9436182B013C0181E00E94B31887FFEF
:1034300064C082E10E94B31883FF0EC0F2E04F1A0D
:1034400051086108710840926C0350926D036092BC
:103450006E0370926F0348C086FF43C0E0917A0309
:10346000F0917B03CF0123E0969587952A95E1F7AC
:10347000837061F4E770F0E0EE0FFF1FEA5AFC4F33
:1034800085919491481A590A610871084092700315
:103490005092710360927203709273038DE10E94E7
:1034A000B31882FF02C082E201C083E10E94B31818
:1034B0008093950480E10E94B318682F8DE00E94EC
:1034C000C818809195040E94270E89E10E94B318C4
:1034D000809379038AE10E94B3188D538093780317
:1034E00003C087FD109295046FEF81E10E94C81818
:1034F0006FEF82E10E94C81833C08EE30E94B318B8
:10350000D82E8FE30E94B31883FF09C040926C034A
:1035100050926D0360926E0370926F0321C082FF20
:1035200014C04092700350927103609272037092C3
:10353000730382E30E94B318809395040E94270EC0
:1035400010927903109278030BC0D2FE03C0109240
:10355000950406C062E373E087E491E00E940818D6
:1035600080E00E94A919C0908503D09086030E9434
:103570002F180E94420ED0928603C09285031092AB
:10358000800310927F03E0916A03F0916B03AAE637
:10359000B3E0309729F0DF010190F081E02DF9CF01
:1035A000ED92FC920E94B5192196BC1202CFDF91D8
:1035B000CF911F910F91FF90EF90DF90CF90BF9030
:1035C000AF909F907F906F905F904F900895CF93B2
:1035D000C82F68E881E00E94C81881E00E94B318F3
:1035E00087FD06C061E272E087E491E00E9408185E
:1035F00081E00E94A919C23049F46AE08DE10E947D
:10360000C81860E78EE10E94C81804C00E944819DB
:103610000E94F81861E28CE00E94C81860E483E21E
:103620000E94C81883E30E94B318682F606483E384
:103630000E94C81860917C038FE10E94C81864E35F
:1036400089E30E94C81860EC80E40E94C8186FEFFC
:1036500082E10E94C818EC2FF0E0ED5AFC4F649113
:10366000609581E10E94C818C1110CC0609170037F
:103670007091710380917203909173030E944D18B1
:1036800086E001C085E0CF910C94A919CF93C82F93
:1036900081E00E94B318877019F064E972E009C0F4
:1036A00090917A03977009F06BC0CC2331F062E6F9
:1036B00072E087E491E00E94081868E081E00E94CF
:1036C000C81881E00E94B31887FF03C066E672E065
:1036D000F0CF81E00E94A9190E94F81861E28CE005
:1036E0000E94C8186EE18DE00E94C8186BE082E16C
:1036F0000E94C81862E183E10E94C8186AEA8FE15B
:103700000E94C81862E187E20E94C81868ED80E351
:103710000E94C81860E481E30E94C81861EC88E246
:103720000E94C81864E989E20E94C81861EC8AE224
:103730000E94C8186FEF81E20E94C81862E082E020
:103740000E94C81860E883E00E94C81861E084E025
:103750000E94C81869E985E00E94C81868E380E4FF
:103760000E94C81860917003709171038091720378
:10377000909173030E944D1885E0CF910C94A91984
:103780008C2FCF910C94E71A4F925F926F927F9299
:10379000AF92BF92CF92DF92EF92FF920F931F935F
:1037A000CF93DF93EC012801390180E1E2E5F5E0F8
:1037B000DF011D928A95E9F781E08093610580938E
:1037C0005205EF2809F480E08093570588E595E0DD
:1037D0000E94FA03B301A2018CE595E00E94FA036E
:1037E00090E1FE01A8E4B3E001900D929A95E1F713
:1037F000A501B60184E0DF91CF911F910F91FF9059
:10380000EF90DF90CF90BF90AF907F906F905F90E0
:103810004F900C949316603811F0609316049091B9
:103820001704981759F0809317048091130490910E
:103830001404986090931404809313040895CF9314
:103840000E942F1880E00E94A9190E94B5190E94B9
:10385000420E8AE691E0ECE6F3E0DF019C011D9266
:1038600021503040E1F70E949618C82F0E94961808
:103870002C2F30E0322F2227282B30935404209312
:10388000530410921404109213041092180480E848
:103890008093880410928C0488E096EEA3EDB3E345
:1038A00080938D0490938E04A0938F04B093900422
:1038B00081E080938404CF91089508954091B105EB
:1038C0005091B2052091AF053091B00542175307D2
:1038D000B4F49091E8009570E1F39091E80092FDC6
:1038E00019C08093F1008091B1059091B2050196C5
:1038F0008F739927892B19F48EEF8093E8008091BC
:10390000B1059091B20501969093B2058093B105EF
:1039100081E0089580E00895DF92EF92FF920F9387
:103920001F93CF93DF93D82E8A017B01E40EF51EFF
:10393000EB01CE15DF0571F0D7FE03C0FE018491C7
:1039400001C088810E945E1C21968111F2CF8FEF09
:103950009FEF01C0C801DF91CF911F910F91FF90A0
:10396000EF90DF900895CF92DF92EF92FF920F9346
:103970001F93CF93DF936C017A018B01C0E0D0E0FD
:10398000CE15DF0589F0D8016D918D01D601ED913D
:10399000FC910190F081E02DC6010995892B11F46D
:1039A0007E0102C02196ECCFC701DF91CF911F911C
:1039B0000F91FF90EF90DF90CF9008950E941D2D02
:1039C0000F931F93CF93DF931F92CDB7DEB782E0A3
:1039D000898342E450E064E673E080E80E948C1C36
:1039E0000E94B211DC0112960D911C9113970115E2
:1039F000110569F0D801ED91FC910280F381E02D71
:103A0000BE016F5F7F4FC801099597FF07C089818D
:103A10000F90DF91CF911F910F910895F8010085CC
:103A20001185E5CF1F920F920FB60F9211242F939D
:103A30003F934F935F936F937F938F939F93AF9336
:103A4000BF93EF93FF93E0910801F091090109956D
:103A5000FF91EF91BF91AF919F918F917F916F9166
:103A60005F914F913F912F910F900FBE0F901F903C
:103A700018951F920F920FB60F9211242F933F9318
:103A80004F935F936F937F938F939F93AF93BF9366
:103A9000EF93FF93E0910601F09107010995FF91E3
:103AA000EF91BF91AF919F918F917F916F915F91B6
:103AB0004F913F912F910F900FBE0F901F9018952F
:103AC0001F920F920FB60F9211242F933F934F9393
:103AD0005F936F937F938F939F93AF93BF93EF9376
:103AE000FF93E0910401F09105010995FF91EF9199
:103AF000BF91AF919F918F917F916F915F914F9106
:103B00003F912F910F900FBE0F901F9018951F920D
:103B10000F920FB60F9211242F933F934F935F9301
:103B20006F937F938F939F93AF93BF93EF93FF9385
:103B3000E0910201F09103010995FF91EF91BF918E
:103B4000AF919F918F917F916F915F914F913F9135
:103B50002F910F900FBE0F901F9018951F920F92EC
:103B60000FB60F9211242F933F934F935F936F9350
:103B70007F938F939F93AF93BF93EF93FF93E091C6
:103B80000001F09101010995FF91EF91BF91AF9173
:103B90009F918F917F916F915F914F913F912F9165
:103BA0000F900FBE0F901F9018951F920F920FB697
:103BB0000F9211242F933F934F935F936F937F93B3
:103BC0008F939F93AF93BF93CF93EF93FF93C09146
:103BD000E1008091E100837F8093E100C3FF0FC08B
:103BE0001092E90081E08093EB001092EC0082E3F8
:103BF0008093ED001092BC0288E08093F000C2FF39
:103C000014C00E94D00D8091AE05882329F08091C8
:103C1000AE0581508093AE058091BB02882329F0C8
:103C20008091BB0281508093BB02C4FF10C0809181
:103C3000E2008E7E81608093E2008091E1008F7EC1
:103C40008093E10080918F028E7E806111C0C0FF61
:103C500011C08091E2008E7E80618093E2008091AD
:103C6000E1008E7E8093E10080918F028E7E8160E4
:103C700080938F02FF91EF91CF91BF91AF919F9170
:103C80008F917F916F915F914F913F912F910F9005
:103C90000FBE0F901F9018951F920F920FB60F92A4
:103CA0001124CF92DF92EF92FF920F931F932F93E5
:103CB0003F934F935F936F937F938F939F93AF93B4
:103CC000BF93EF93FF93CF93DF93CDB7DEB76C979E
:103CD000DEBFCDBF1092E9008091E80083FFFFC1F5
:103CE000FE017596DE2ECF2E88E08E0F8E1729F0FE
:103CF0009091F10090833196F9CF84E68093BB02D6
:103D000082EF8093E8008D8987FF05C09091E800DD
:103D100090FFFCCF03C09EEF9093E800982F907621
:103D200009F0C5C09E892F89188D91110CC080386B
:103D300029F4809190028093F10002C01092F1006A
:103D40001092F1004FC1422F50E0512B913051F4AD
:103D5000811148C14130510509F044C18091900260
:103D60008D7F0BC0933061F481113CC1413051050E
:103D700009F038C18091900282608093900232C134
:103D8000953041F48091E80080FFFCCF20682093BB
:103D9000E30028C1963009F05EC0EB8CFC8C1092D9
:103DA000E9001092B2051092B105123091F510920F
:103DB000B0051092AF050E94E01C99E0BE016F5F54
:103DC0007F4FDB01E92F1D92EA95E9F799831A836A
:103DD00091E09E8390EA98879AEF99872091B105A8
:103DE0003091B205275F3F4F3C832B838D83109228
:103DF000E9001092B2051092B105F092B005E09280
:103E0000AF0549E050E080E00E948C1C0E94E01C5D
:103E1000E9C0F092B005E092AF050E94B211DC015A
:103E20001296ED90FC901397E114F10409F4C7C0C9
:103E3000D701ED91FC910480F581E02D6D2D7C2D55
:103E4000C7010995009719F00CF0CCC0CFC0F7015D
:103E5000E084F184E9CF973009F4C8C0983021F4A8
:103E600081E08093F100BEC0993009F0BBC083703F
:103E700009F0BCC0E1E4F1E081E021E036E39081AB
:103E8000992361F08093E9002093EB009191909346
:103E9000EC003093ED008F5F873089F78EE78093D9
:103EA000EA001092EA008F898093BC029BC08B8D40
:103EB0009C8D1092E9001092B2051092B10590937A
:103EC000B0058093AF05898D81115FC08E899D8972
:103ED000913A59F4813209F089C047E050E06EE030
:103EE00071E080E00E948C1C7DC0913209F07EC0A0
:103EF000833289F4888D90E0982F88272F89822B30
:103F0000A0E0B0E080930A0190930B01A0930C0114
:103F1000B0930D0167C08032B1F48091E80082FF58
:103F2000FCCFEEE0F1E087E08E0F8E1729F0909144
:103F3000F10090833196F9CF84E68093BB028BEF3A
:103F40008093E80006C0823209F04CC08F898093CC
:103F5000150180918E02882319F0EEEFFAE002C07D
:103F6000E0E0F8E080910E0190910F01A091100126
:103F7000B0911101803B9440A105B10509F07AC0D0
:103F80008091150180FF92C075C00E94B211DC01C2
:103F900012960D911C9113970115110539F1D80155
:103FA000ED91FC910190F081E02D6D2D7C2DC801EB
:103FB0000995811117C0F80100851185EDCF1130E9
:103FC00009F44EC0133091F48F89882309F445C059
:103FD000823081F440E86CE085EC93E00E94FB289D
:103FE000882321F08EEF8093E80079C081E28093EE
:103FF000EB0075C0813029F440E868E08CEB93E079
:10400000EDCF833099F70E94B211DC011296ED904A
:10401000FC9013978E010F5F1F4F6801E114F104AC
:1040200079F0D701ED91FC910680F781E02DB80180
:10403000C7010995080F111DF701E084F184EECF47
:10404000D8011C92F60101900020E9F73197BF01D9
:104050006C197D0940E0C601C1CF66EA73E002C079
:104060006AEA73E06115710509F2FB01449150E0C1
:1040700080E838CF0FB6F894A895809160008861E9
:1040800080936000109260000FBEA895EE3F2AE07A
:10409000F20739F08091FE0A9091FF0A91838083A4
:1040A000A1CF1092FF0A1092FE0A9CCFEE3F8AE049
:1040B000F80731F0808191819093FF0A8093FE0A86
:1040C00087E797E7918380839BE088E10FB6F894B8
:1040D000A895809360000FBE9093600083CF6C968C
:1040E0000FB6F894DEBF0FBECDBFDF91CF91FF9129
:1040F000EF91BF91AF919F918F917F916F915F9160
:104100004F913F912F911F910F91FF90EF90DF9072
:10411000CF900F900FBE0F901F9018953FB7F89457
:104120008091B4059091B505A091B605B091B70501
:1041300026B5A89B05C02F3F19F00196A11DB11D02
:104140003FBFBA2FA92F982F8827820F911DA11D3D
:10415000B11DBC01CD0143E0660F771F881F991F79
:104160004A95D1F708958F929F92AF92BF92CF92C6
:10417000DF92EF92FF926B017C010E948E204B0137
:104180005C01C114D104E104F104F1F00E948E201D
:10419000DC01CB0188199909AA09BB09883E934023
:1041A000A105B10570F321E0C21AD108E108F108B8
:1041B00088EE880E83E0981EA11CB11CC114D104A6
:1041C000E104F10419F7DDCFFF90EF90DF90CF907D
:1041D000BF90AF909F908F9008951F920F920FB64F
:1041E0000F9211242F933F938F939F93AF93BF937D
:1041F0008091BD029091BE02A091BF02B091C00219
:104200003091B30526E0230F2D3720F40296A11D2F
:10421000B11D05C029E8230F0396A11DB11D2093F0
:10422000B3058093BD029093BE02A093BF02B093EA
:10423000C0028091B4059091B505A091B605B091EA
:10424000B7050196A11DB11D8093B4059093B505E6
:10425000A093B605B093B705BF91AF919F918F9191
:104260003F912F910F900FBE0F901F901895CF93F5
:10427000DF93CDB7DEB7E6970FB6F894DEBF0FBE7B
:10428000CDBF789484B5826084BD84B5816084BDDF
:1042900085B5826085BD85B5816085BD80916E00E4
:1042A000816080936E001092810080918100826015
:1042B0008093810080918100816080938100809152
:1042C0008000816080938000809191008260809363
:1042D0009100809191008160809391008091900085
:1042E0008160809390008091C10084608093C100C0
:1042F0008091C10082608093C1008091C100816083
:104300008093C1008091C30081608093C30080913D
:10431000C00082608093C0008091C2008160809361
:10432000C20080917A00846080937A0080917A0044
:10433000826080937A0080917A008E7F80937A00E9
:1043400080917A00806880937A001092BC0210926B
:10435000900210928F028091D70081608093D700E5
:1043600080EA8093D80089B58F7E89BD89B5826047
:1043700089BD09B400FEFDCF61E070E080E090E00F
:104380000E94B3208091D8008F7C80618093D800F8
:104390008091E000807F8093E0008091E1008E7E3C
:1043A0008093E1008DE08093E200EEEFFFE78591DE
:1043B00094918B3F9C4D19F481E080938E0260E0D4
:1043C00081E00E94331261E085E00E94331261E0D7
:1043D0008CE00E94331261E08CE00E94031268E8D6
:1043E00073E180E090E00E94B3208FEF9FEF909305
:1043F000E3048093E20489E891E00E94AA0D60ED55
:1044000077E080E090E00E94B320109227031092A2
:1044100026031092DC021092FE021092250381E026
:104420008093240310921F0361E082E00E94031234
:1044300061E083E00E9403128091B9008E7F809337
:10444000B9008091B9008D7F8093B90080E280939C
:10445000B80085E48093BC008AEA0E9443119093DF
:10446000C6028093C5028CEA0E9443119093C80251
:104470008093C7028EEA0E9443119093CA028093F0
:10448000C90280EB0E9443119093CC028093CB022F
:1044900082EB0E9443119093CE028093CD0284EB75
:1044A0000E9443119093D0028093CF0286EB0E942A
:1044B00043119093D2028093D10288EB0E94431162
:1044C0009093D4028093D3028AEB0E94431190937D
:1044D000D6028093D5028CEB0E9443119093D802B0
:1044E0008093D7028EEB0E9443119093DA0280935F
:1044F000D902109268031092690310926A03109215
:104500006B0361E088E00E94331261E084E00E9466
:10451000331260E087E00E94331260E086E00E9480
:104520003312FFB6F8948091A302811127C0E6E20E
:10453000F3E08491E5E4F3E09491E82FF0E0EE0FEE
:10454000FF1FE453FE4FA591B491EC91E92321F4B0
:1045500061E081E10E94031261E081E10E94331277
:104560008CB580618CBD8CB580648CBD61E08FE0C2
:104570000E94331261E080E10E9433128091A30215
:104580008F5F8093A302FFBEE4EAF2E08EE0DF01DA
:104590001D928A95E9F787E298E19093AD028093A6
:1045A000AC0282E08093A702F093BB05E093BA05CA
:1045B0000E942F1861E084E00E94331260E084E0E2
:1045C0000E9403120E943618625C7F4F8F4F9F4FEC
:1045D0000E944D1860E084E00E9433120E94361859
:1045E000685C7E4F8F4F9F4F0E944D1880E00E9465
:1045F000A91982E40E94B318823131F061EB72E0B4
:1046000087E491E00E94081882E00E94E71A81E0A6
:104610000E94B31887708530D1F762E9E62E62E018
:10462000F62E58E0A52EB12C8CE20E94B3188170B2
:10463000D82E8CE20E94B3182D2D30E0082F017087
:1046400010E02017310781F3F7018081880FD82A05
:10465000D082F1E0AF1AB10839F72FEFE21AF20A6F
:1046600031EAE31632E0F306E1F610E1109391022D
:1046700080E00E94A9190E94B51980E490E090930F
:104680001404809313040E941F1C40E150E069E76A
:1046900071E0CE0141960E94382940E150E069E680
:1046A00071E0CE0101960E94382981E090E0A0E0FF
:1046B000B0E080930F0490931004A0931104B09382
:1046C00012048EE79EE1A1E0B6E280937504909318
:1046D0007604A0937704B0937804FE013196A5E5A3
:1046E000B4E0812F01900D928A95E1F7FE01719659
:1046F000A5E6B4E001900D921A95E1F780E4E7EAAF
:10470000F3E0DF011D928A95E9F780E2E7EEF3E03E
:10471000DF01282F1D922A95E9F7E7E8F3E0DF0192
:104720001D928A95E9F787E090E0909308048093C2
:104730000704EDE5F1E085919591A591B491809301
:10474000A7039093A803A093A903B093AA038FE3B0
:1047500090E09093E8038093E703E1E6F1E0459170
:104760005591659174914093AB035093AC03609362
:10477000AD037093AE039093EA038093E903E5E6FB
:10478000F1E045915591659174914093AF03509339
:10479000B0036093B1037093B2039093EC038093E2
:1047A000EB0388EE93E090938803809387031EE0E9
:1047B000109389030E9496188F7080938A0384E671
:1047C00090E09093900380938F03109391030E9445
:1047D00096188F70809392038AE090E090939803EC
:1047E000809397038BE1809399030E9496188F70B2
:1047F00080939A030E94361860939B0370939C03E6
:1048000080939D0390939E0360939303709394030E
:10481000809395039093960360938B0370938C031E
:1048200080938D0390938E038091130490911404D0
:1048300089759D7F9860909314048093130410925F
:104840007D0410927E0410927F04109280041092D6
:10485000790410927A0410927B0410927C041092D6
:104860001904109287041092860410928304109207
:10487000810410928B04109291041092890410927A
:104880008A041092150484EF8093820488E096EEE7
:10489000A3EDB3E380938D0490938E04A0938F04D3
:1048A000B093900483E080938C046EE00E940B1C14
:1048B00060E085E00E94031260E08CE00E94031239
:1048C00061E08DE00E940312EBE9F1E084919091A8
:1048D0007B0083FBFF27F0F9F9AB1AAA29A93AA9B3
:1048E00045E0220F331F4A95E1F79F7D292B209346
:1048F0007B008770806480937C0080917A00806464
:1049000080937A0080917A0086FDFCCF60917800D8
:104910008091790070E0782B072E000C880B990BA2
:104920000E945D2A9B01AC010E94422923E333E3EC
:1049300043E550E40E94122B20E030E040E85AE3C7
:104940000E94122B69A77AA78BA79CA761E08CE035
:104950000E9403120E946F128823B9F180913A05D8
:104960008B3039F1D8F185518230C0F56091340532
:1049700070E080E090E00E945B2A20E030E040E8B8
:1049800053E40E94122B6B017C016091350570E0AD
:1049900080E090E00E945D2A9B01AC01C701B60156
:1049A0000E9442292DEC3CEC4CEC5DE30E94122B62
:1049B00007C06091340570E080E090E00E945B2ABF
:1049C00069A37AA38BA39CA311C020E030E040EC44
:1049D0005FE729A33AA34BA35CA308C080E090E063
:1049E000A0ECBFE789A39AA3ABA3BCA30E946F125C
:1049F000882309F440C080913A058B3029F0D8F122
:104A00008551823058F037C06091360570E080E003
:104A100090E00E945B2A6B017C0133C01091360547
:104A2000612F6F7770E080E090E00E945D2A20E0C7
:104A300030E040E853E40E94122B6B017C0160914E
:104A4000370570E080E090E00E945D2A9B01AC0198
:104A5000C701B6010E9442292DEC3CEC4CEC5DE311
:104A60000E94122B6B017C0117FF0BC0F7FAF09428
:104A7000F7F8F09406C0C12CD12C00ECE02E0FE723
:104A8000F02E11E01093DB0297E79093FD02109255
:104A9000DC021092FE0284EF90E00E943E118EE252
:104AA00090E00E943E110E94C51065E070E080E039
:104AB00090E00E94B32086EF0E944311AC0160E0B9
:104AC00070E08091CF029091D0029A01AB01281B37
:104AD000390B41095109A091CD02B091CE020E943B
:104AE000112C4B015C01FFE0B594A7949794879437
:104AF000FA95D1F76091D7027091D802CB01770F68
:104B0000AA0BBB0BBC01CD01ABE0660F771F881F62
:104B1000991FAA95D1F72091D9023091DA02290183
:104B2000330F66087708A5019401240D351D461D35
:104B3000571D0E94D62B820E931EA41EB51E809276
:104B4000C1029092C202A092C302B092C402A8E035
:104B50008A0E911CA11CB11CC501B401B4E095954D
:104B6000879577956795BA95D1F70E945D2A20E0E1
:104B700030E040E251E40E94B3296093B6027093A2
:104B8000B7028093B8029093B9021093DB02B7E7A3
:104B9000B093FD021092DC021092FE0284EF90E0CE
:104BA0000E943E1184E390E00E943E110E94C510D5
:104BB00065E070E080E090E00E94B32086EF0E9404
:104BC0001E11082F87EF0E941E11182F88EF0E94D8
:104BD0001E118090C1029090C202A090C302B090BA
:104BE000C402E0EA8E1AEFE09E0AA108B108A5010E
:104BF0009401C501B4010E94842B6DA37EA38FA3F1
:104C000098A7E091C502F091C602A091C902B091A7
:104C1000CA020E941C2C2B013C018DE07594679404
:104C2000579447948A95D1F7A091D102B091D202BE
:104C30002DA13EA14FA158A59CE0559547953795CC
:104C400027959A95D1F70E941C2CBB2797FDB0950C
:104C5000AB2F840D951DA61DB71D0296A11DB11D7C
:104C600032E0B595A795979587953A95D1F79C0130
:104C7000AD0130584F4F5F4FA091CB02B091CC02A5
:104C80000E94112C2B013C014FE0769467945794BD
:104C900047944A95D1F7812F90E0A0E0B0E0BA2F79
:104CA000A92F982F8827A02B292F3A2F4B2F552734
:104CB0002DA73EA74FA758ABCF01FF0FAA0BBB0BE9
:104CC0009C01AD0172E0220F331F441F551F7A95DE
:104CD000D1F72BAB3CAB4DAB5EABA091D302B09107
:104CE000D4022DA13EA14FA158A50E941C2C9B01CE
:104CF000AC01E7E15595479537952795EA95D1F7AA
:104D00002DA33EA34FA358A7A091C702B091C802FC
:104D1000A50194010E941C2CDC01CB01FBE0B595A0
:104D2000A79597958795FA95D1F72DA13EA14FA10B
:104D300058A5820F931FA41FB51F2BA93CA94DA9ED
:104D40005EA9820F931FA41FB51F0296A11DB11D5E
:104D500012E0B595A795979587951A95D1F72DA54A
:104D60003EA54FA558A9281B390B4A0B5B0BA0E5A4
:104D7000B3EC0E94112C97FD0BC0660F771F881FA4
:104D8000991FA30192010E94B42B49015A010AC044
:104D9000A30192010E94B42B49015A01880C991C6D
:104DA000AA1CBB1C9927B7FC9A958B2D7A2D692DCF
:104DB0009B01AC010E94842B9B01AC01AEEDBBE0DA
:104DC0000E94112C2C01772457FC7094672CA3E4CB
:104DD000B3EEA50194010E941F2CBB2797FDB0954F
:104DE000AB2F840D951DA61DB71D8153914FAF4F5D
:104DF000BF4F44E0B595A795979587954A95D1F70C
:104E0000BC01CD01680D791D8A1D9B1D24E630E093
:104E100040E050E00E94D62BCA01B9010E945D2AF1
:104E20006093B2027093B3028093B4029093B50280
:104E300060E08CE00E94031264E670E080E090E0A5
:104E40000E94B32084E392E00E94920D6091B6022A
:104E50007091B7028091B8029091B90242E00E942D
:104E6000F10F8EE392E00E94920D6091B202709178
:104E7000B3028091B4029091B50242E00E94F10F1A
:104E80008AE492E00E94920D42E069A57AA58BA582
:104E90009CA50E94F10F85E592E00E94920D42E0F0
:104EA00069A17AA18BA19CA10E94F10F81E692E0F9
:104EB0000E94920D42E0C701B6010E94F10F8CE6FC
:104EC00092E00E94920D85E792E00E94920D8FEB96
:104ED00091E00E94AA0D8090B6029090B702A09037
:104EE000B802B090B9024090B2025090B302609004
:104EF000B4027090B5023091A1023DA3209013043A
:104F00003090140427FE03C086EA91E08AC020E0B6
:104F100030E048EC52E469A57AA58BA59CA50E94D7
:104F2000122B0E94252A69A77DA720E030E040E2ED
:104F300051E4C701B6010E94122B0E94252A162FA8
:104F4000072F20E030E040E251E4C501B4010E94A7
:104F5000122B0E94252AF62EE72E20E030E040E2B8
:104F600051E4C301B2010E94122B0E94252AD62EC1
:104F7000C72E82E080931F04809320044DA54093A8
:104F8000210459A55093220483E08093230497E6DB
:104F9000909324040093250410932604A4E0A09386
:104FA0002704B8E6B093280429A13AA14BA15CA13B
:104FB000CA01B9010E9442290E94252A609329044E
:104FC000E5E0E0932A04F7E6F0932B04E0922C044A
:104FD000F0922D0486E080932E0483E780932F04C3
:104FE000C0923004D092310487E080933204109252
:104FF00033042DA12093340410921D0481E080938A
:105000001C0486E180931E04C101886090931404FF
:105010008093130422FE109292040E9400048EE9F1
:1050200091E00E94AA0D8091A20281113EC00E94CF
:105030002F1800916A0310916B030115110541F0BF
:10504000D8018D919C9190936B0380936A0320C04B
:10505000E0916803F09169033097D1F0C280D3806A
:10506000E480F5800E943618C61AD70AE80AF90AC1
:105070001C141D041E041F045CF0009168031091B1
:105080006903F8018081918190936903809368039B
:105090000E94B5190115110531F2D8011696ED914E
:1050A000FC911797C8010995BECF1092A20260E04B
:1050B0008DE00E9403121092A102E4E4F2E0F0936A
:1050C0000701E0930601809169008F7380648093EB
:1050D0006900EB9A00E010E060E08DE00E940312AE
:1050E00020E030E040E050E069E070E08AEB92E0E0
:1050F0000E94211561E08DE00E94031220E030E063
:1051000040E050E062E070E08AEB92E00E942115FE
:1051100060E08DE00E9403128091A102882311F0CB
:105120000BE410E00F5F1F4F0B341105ACF2EB984E
:105130002DE53CE1309307012093060161E08CE00E
:105140000E94031261E08DE00E94031268E873E19F
:1051500080E090E00E94B32040E050E0452B09F44D
:10516000AFCB0E940000ACCBE6EDF4E013821282DC
:1051700088EE93E0A0E0B0E084839583A683B783B4
:1051800020E231E0318320832FEF3FEF3587248702
:10519000E6E2F5E01382128284839583A683B783C7
:1051A00082E391E091838083E2E3F5E080E5808310
:1051B00081E08183A4E3B5E08AE015968C9315978E
:1051C0008BE016968C931697EEE3F3E0E491179636
:1051D000EC931797EFE1F3E0E4911896EC931897AE
:1051E00040E45FE160E070E01D964D935D936D9348
:1051F0007C9350970895CF92DF92EF92FF920F9396
:105200001F93CF93DF931F92CDB7DEB7182F062FD2
:10521000E42E862F880F8E5F99830E945E1C83E0A8
:105220000E945E1CF12EC12E9981D92E8C2D8F19D2
:10523000801798F4F601E7FE02C0849101C08081D6
:105240000E945E1C182F80E00E945E1C8123FFEFED
:10525000CF1ADF0A8111EACF01C081E00F90DF9100
:10526000CF911F910F91FF90EF90DF90CF90089515
:10527000FB01DC0102C005900D9241505040D8F76F
:1052800008955058BB27AA270E9459290C94D32A65
:105290000E94C52A38F00E94CC2A20F039F49F3FA2
:1052A00019F426F40C94C22A0EF4E095E7FB0C9452
:1052B000BC2AE92F0E94E42A58F3BA176207730741
:1052C0008407950720F079F4A6F50C94062B0EF4CC
:1052D000E0950B2EBA2FA02D0B01B90190010C0106
:1052E000CA01A0011124FF27591B99F0593F50F41E
:1052F000503E68F11A16F040A22F232F342F442776
:10530000585FF3CF469537952795A795F04053956D
:10531000C9F77EF41F16BA0B620B730B840BBAF03D
:105320009150A1F0FF0FBB1F661F771F881FC2F7A8
:105330000EC0BA0F621F731F841F48F487957795BC
:105340006795B795F7959E3F08F0B0CF9395880F76
:1053500008F09927EE0F9795879508950E94982A4F
:1053600008F481E008950E94C7290C94D32A0E9472
:10537000CC2A58F00E94C52A40F029F45F3F29F05A
:105380000C94BC2A51110C94072B0C94C22A0E9435
:10539000E42A68F39923B1F3552391F3951B550B38
:1053A000BB27AA2762177307840738F09F5F5F4FF8
:1053B000220F331F441FAA1FA9F335D00E2E3AF037
:1053C000E0E832D091505040E695001CCAF72BD04F
:1053D000FE2F29D0660F771F881FBB1F26173707A0
:1053E0004807AB07B0E809F0BB0B802DBF01FF27D2
:1053F00093585F4F3AF09E3F510578F00C94BC2AC9
:105400000C94072B5F3FE4F3983ED4F38695779591
:105410006795B795F7959F5FC9F7880F911D96958A
:10542000879597F90895E1E0660F771F881FBB1FE6
:10543000621773078407BA0720F0621B730B840B93
:10544000BA0BEE1F88F7E09508950E942C2A689405
:10545000B1110C94072B08950E94EC2A88F09F57F5
:1054600098F0B92F9927B751B0F0E1F0660F771F88
:10547000881F991F1AF0BA95C9F714C0B13091F07E
:105480000E94062BB1E008950C94062B672F782F0D
:105490008827B85F39F0B93FCCF386957795679543
:1054A000B395D9F73EF490958095709561957F4FAF
:1054B0008F4F9F4F0895E89409C097FB3EF4909555
:1054C0008095709561957F4F8F4F9F4F9923A9F0DD
:1054D000F92F96E9BB279395F6958795779567956C
:1054E000B795F111F8CFFAF4BB0F11F460FF1BC0B0
:1054F0006F5F7F4F8F4F9F4F16C0882311F096E943
:1055000011C0772321F09EE8872F762F05C06623F0
:1055100071F096E8862F70E060E02AF09A95660FA9
:10552000771F881FDAF7880F9695879597F9089562
:10553000990F0008550FAA0BE0E8FEEF16161706A4
:10554000E807F907C0F012161306E407F50798F00C
:10555000621B730B840B950B39F40A2661F0232B25
:10556000242B252B21F408950A2609F4A140A695A1
:105570008FEF811D811D089597F99F6780E870E086
:1055800060E008959FEF80EC089500240A941616B9
:10559000170618060906089500240A941216130621
:1055A000140605060895092E0394000C11F48823AF
:1055B00052F0BB0F40F4BF2B11F460FF04C06F5FCB
:1055C0007F4F8F4F9F4F089557FD9058440F551FA1
:1055D00059F05F3F71F04795880F97FB991F61F075
:1055E0009F3F79F087950895121613061406551FEC
:1055F000F2CF4695F1DF08C0161617061806991F58
:10560000F1CF86957105610508940895E894BB274C
:1056100066277727CB0197F908950E94982A08F406
:105620008FEF08950E94252B0C94D32A0E94C52A3F
:1056300038F00E94CC2A20F0952311F00C94BC2A5B
:105640000C94C22A11240C94072B0E94E42A70F3B4
:10565000959FC1F3950F50E0551F629FF001729F17
:10566000BB27F00DB11D639FAA27F00DB11DAA1F26
:10567000649F6627B00DA11D661F829F2227B00D73
:10568000A11D621F739FB00DA11D621F839FA00DFE
:10569000611D221F749F3327A00D611D231F849F4E
:1056A000600D211D822F762F6A2F11249F575040A5
:1056B0009AF0F1F088234AF0EE0FFF1FBB1F661F20
:1056C000771F881F91505040A9F79E3F510580F0E9
:1056D0000C94BC2A0C94072B5F3FE4F3983ED4F360
:1056E000869577956795B795F795E7959F5FC1F78D
:1056F000FE2B880F911D9695879597F908950E9426
:10570000982A880B990B0895DB018F939F930E9431
:10571000112CBF91AF91A29F800D911DA39F900D61
:10572000B29F900D11240895991B79E004C0991F30
:10573000961708F0961B881F7A95C9F780950895EB
:1057400097FB072E16F4009407D077FD09D00E942E
:10575000002D07FC05D03EF4909581959F4F08954C
:10576000709561957F4F0895A1E21A2EAA1BBB1B6D
:10577000FD010DC0AA1FBB1FEE1FFF1FA217B3071D
:10578000E407F50720F0A21BB30BE40BF50B661F33
:10579000771F881F991F1A9469F7609570958095F7
:1057A00090959B01AC01BD01CF010895052E97FB9B
:1057B0001EF400940E94ED2B57FD07D00E94B42BDD
:1057C00007FC03D04EF40C94ED2B5095409530958A
:1057D00021953F4F4F4F5F4F08959095809570955D
:1057E00061957F4F8F4F9F4F0895EE0FFF1F0590DC
:1057F000F491E02D0994A29FB001B39FC001A39F33
:10580000700D811D1124911DB29F700D811D1124F9
:10581000911D08950E94FB2BB7FF0895821B930BE7
:1058200008950E94FB2BA59F900DB49F900DA49FFF
:10583000800D911D11240895B7FF0C94112C0E9426
:10584000112C821B930B089597FB57FF0C94342C5B
:105850009F938F930E94342C6E1B7F0BAF91BF914F
:105860008A0B9B0B0895E894DF93CF93FC01DB0137
:105870000E94FB2B7F936F93E9019A01AC01BF93C8
:10588000AF933F932F93DF010E94FB2B26F46C1BF9
:105890007D0B820B930B9E01EB01FC010E94142DEA
:1058A000AF91BF912F913F910E94142DBE01CF0166
:1058B000F9012F913F91CF91DF910895689401C034
:1058C000E8948F929F92CF93DF930E946C2CDF918C
:1058D000CF919F908F90089588249924F401E4013A
:1058E000B0E49F93AA279A158B049C04ED05FE054E
:1058F000CF05D007A10798F4AD2FDC2FCF2FFE2FB7
:10590000E92D982C892E982F872F762F652F542FCD
:10591000432F322F2227B85031F7BF9127C01B2EBB
:10592000BF91BB27220F331F441F551F661F771FD0
:10593000881F991F881C991CEE1FFF1FCC1FDD1F9D
:10594000AA1FBB1F8A149B04EC05FD05CE05DF05CD
:10595000A007B10748F08A189B08EC09FD09CE0999
:10596000DF09A00BB10B21601A94E1F62EF494012B
:10597000AF01BE01CD01000C08950F93083090F0E7
:10598000982F872F762F652F542F432F322F2227C2
:105990000850F4CF220F331F441F551F661F771F77
:1059A000881F991F0A95B2F70F91089597FB10F879
:1059B000169400080F93083098F00850232F342FC6
:1059C000452F562F672F782F892F902DF4CF0594D0
:1059D0009795879577956795579547953795279527
:1059E0000A95AAF70F9108950024A7FD00942A179D
:1059F0003005400550056005700580059005089547
:105A0000AA1BBB1B51E107C0AA1FBB1FA617B707E4
:105A100010F0A61BB70B881F991F5A95A9F7809500
:105A20009095BC01CD0108950E94FB2B460F571F96
:105A3000C81FD91F08F43196089581E090E0F894CA
:105A40000C942B2DFB01DC0102C001900D92415002
:0A5A50005040D8F70895F894FFCFF6
:105A5A005D1C5D1C5D1C5D1C5D1CFFFFFFFF00E102
:105A6A0000000000000008FF040706FF0000000015
:105A7A006F133F14C214C6148513EC14C814000023
:105A8A0000000814CB1332149F13C313AF13A013CF
:105A9A0000C180810000002F55736572732F726FE9
:105AAA006265727464656B6F6B2F4C6962726172A6
:105ABA00792F4D6F62696C6520446F63756D656EF1
:105ACA0074732F636F6D7E6170706C657E436C6F4B
